:100000000C942A000C9447000C9447000C94470071
:100010000C9447000C9447000C9447000C94470044
:100020000C9447000C9447000C9447000C94470034
:100030000C9447000C9447000C9447000C94470024
:100040000C94E8060C9447000C9447000C9447006D
:100050000C94470011241FBECFE5D8E0DEBFCDBF12
:1000600011E0A0E6B0E0E6E8F6E202C005900D92ED
:10007000A639B107D9F711E0A6E9B1E001C01D9298
:10008000A839B107E1F70E9432110C9441130C9486
:100090000000EF92FF920F931F937B018C0120E0F1
:1000A00030E040E05FE40E94490388238CF0C801FF
:1000B000B70120E030E040E05FE40E94C1010E940F
:1000C00007049B01AC01205030404040504806C01E
:1000D000C801B7010E9407049B01AC01B901CA0124
:1000E0001F910F91FF90EF900895A0E0B0E0EBE733
:1000F000F0E00C940A13DC012B01FA019C91923080
:1001000008F439C1EB018881823008F433C194309E
:1001100069F4843009F02FC111969C91119789815F
:10012000981709F428C1ADE7B0E025C1843009F47F
:1001300021C18230A9F4923009F01DC19A01AD01AC
:1001400088E0EA010990AE01E90109929E0181501F
:10015000C1F7E201898111969C918923818308C1AD
:10016000923009F407C112962D903C901397EB0141
:100170008A819B811496AD90BD90CD90DC901797AD
:10018000EC80FD800E811F819101281B390BB90184
:1001900037FF04C066277727621B730B6032710537
:1001A0000CF061C0121613066CF537014801062EDB
:1001B00004C096948794779467940A94D2F721E0C8
:1001C00030E040E050E004C0220F331F441F551FB1
:1001D0006A95D2F721503040404050402E213F21B7
:1001E00040235123211531054105510521F021E01E
:1001F00030E040E050E079018A01E628F72808293C
:1002000019293CC0232BD1F1260E371E350146019A
:10021000062E04C096948794779467940A94D2F734
:1002200021E030E040E050E004C0220F331F441FC3
:10023000551F6A95D2F721503040404050402A2146
:100240003B214C215D21211531054105510521F04E
:1002500021E030E040E050E059016A01A628B728CB
:10026000C828D9280BC0821593052CF01C01AA249C
:10027000BB24650103C0EE24FF24870111969C91E5
:10028000D20111968C91981709F445C0992339F041
:10029000A80197012A193B094C095D0906C0A6016E
:1002A00095012E193F09400B510B57FD08C01182D3
:1002B0003382228224833583468357831DC081E0A5
:1002C00081833382228288279927DC01821B930B4A
:1002D000A40BB50B84839583A683B7830DC0220F2F
:1002E000331F441F551F24833583468357838281E0
:1002F000938101979383828324813581468157813D
:10030000DA01C9010197A109B1098F5F9F4FAF4F72
:10031000BF4328F30BC0918333822282EA0CFB1C7B
:100320000C1D1D1DE482F5820683178383E0808304
:10033000248135814681578157FF1AC0C901AA27F8
:1003400097FDA095BA2F81709070A070B0705695EF
:10035000479537952795822B932BA42BB52B848318
:100360009583A683B7838281938101969383828349
:10037000DF0101C0D201CD01CDB7DEB7E2E10C94BF
:100380002613A0E2B0E0E7ECF1E00C9416136983C9
:100390007A838B839C832D833E834F835887E9E048
:1003A000EE2EF12CEC0EFD1ECE010196B7010E943F
:1003B0007F058E010F5E1F4FCE010596B8010E948A
:1003C0007F058A8991E089278A8BC701B801AE0130
:1003D000475E5F4F0E9475000E94AA04A096E6E067
:1003E0000C943213A0E2B0E0E8EFF1E00C941613A5
:1003F00069837A838B839C832D833E834F835887C5
:10040000F9E0EF2EF12CEC0EFD1ECE010196B701A6
:100410000E947F058E010F5E1F4FCE010596B80129
:100420000E947F05C701B801AE01475E5F4F0E9481
:1004300075000E94AA04A096E6E00C943213A0E294
:10044000B0E0E5E2F2E00C940A1369837A838B83CF
:100450009C832D833E834F835887CE010196BE0136
:10046000675F7F4F0E947F05CE010596BE016F5EDC
:100470007F4F0E947F059985923088F0898982306C
:10048000C8F0943019F4823051F404C0843029F457
:10049000923081F48DE790E0C6C0923049F420E0BC
:1004A0009A858A89981321E02A87CE010996BBC0D4
:1004B000823049F420E09A858A89981321E02A8BBA
:1004C000CE014196B0C02D843E844F8458886D88FB
:1004D0007E888F88988CEE24FF248701AA24BB2471
:1004E000650140E050E060E070E0E0E0F0E0C10174
:1004F00081709070892BE9F0E60CF71C081D191D1E
:100500009A01AB012A0D3B1D4C1D5D1D80E090E062
:10051000A0E0B0E0E614F7040805190520F481E036
:1005200090E0A0E0B0E0BA01A901480F591F6A1F8E
:100530007B1FAA0CBB1CCC1CDD1C97FE08C081E0F5
:1005400090E0A0E0B0E0A82AB92ACA2ADB2A3196B6
:10055000E032F10549F0660C771C881C991C569412
:10056000479437942794C3CFFA85EA892B893C892D
:100570008B859C85280F391F2E5F3F4F17C0CA01FE
:1005800081709070892B61F016950795F794E79428
:1005900080E090E0A0E0B0E8E82AF92A0A2B1B2BC3
:1005A00076956795579547952F5F3F4F77FDE7CF36
:1005B0000CC0440F551F661F771F17FD4160EE0CDE
:1005C000FF1C001F111F21503040403090E05907A0
:1005D00090E0690790E4790760F32B8F3C8FDB0193
:1005E000CA018F779070A070B07080349105A1051A
:1005F000B10561F447FD0AC0E114F10401051105DC
:1006000029F0405C5F4F6F4F7F4F40781A8EFE1786
:1006100011F081E08A8F4D8F5E8F6F8F78A383E01A
:10062000898FCE0149960E94AA04A096E2E10C941B
:100630002613A8E1B0E0EFE1F3E00C941613698310
:100640007A838B839C832D833E834F83588789E0F5
:10065000E82EF12CEC0EFD1ECE010196B7010E9492
:100660007F058E010F5E1F4FCE010596B8010E94D7
:100670007F058985823040F08989823028F0C70162
:10068000B8010E94F70501C08FEF6896E6E00C9470
:100690003213A8E1B0E0EFE4F3E00C9416136983A1
:1006A0007A838B839C832D833E834F83588789E095
:1006B000E82EF12CEC0EFD1ECE010196B7010E9432
:1006C0007F058E010F5E1F4FCE010596B8010E9477
:1006D0007F058985823040F08989823028F0C70102
:1006E000B8010E94F70501C08FEF6896E6E00C9410
:1006F0003213A8E1B0E0EFE7F3E00C94161369833E
:100700007A838B839C832D833E834F83588789E034
:10071000E82EF12CEC0EFD1ECE010196B7010E94D1
:100720007F058E010F5E1F4FCE010596B8010E9416
:100730007F058985823040F08989823028F0C701A1
:10074000B8010E94F70501C081E06896E6E00C94CC
:100750003213A8E0B0E0EFEAF3E00C9413139B012E
:10076000AC0183E08983DA01C9018827B7FD83954D
:100770009927AA27BB27B82E211531054105510518
:1007800019F482E089833AC08823A9F0203080E000
:10079000380780E0480780E8580729F460E070E0F7
:1007A00080E09FEC30C0EE24FF248701E21AF30AB8
:1007B000040B150B02C079018A018EE1C82ED12CE1
:1007C000DC82CB82ED82FE820F831887C801B701DD
:1007D0000E945B0401971816190684F4082E04C0C1
:1007E000EE0CFF1C001F111F0A94D2F7ED82FE824F
:1007F0000F831887C81AD90ADC82CB82BA82CE014D
:1008000001960E94AA042896E9E00C942F13ACE00C
:10081000B0E0EDE0F4E00C941A1369837A838B83E3
:100820009C83CE010196BE016B5F7F4F0E947F05C6
:100830008D81823061F1823050F1843021F48E81DB
:10084000882351F12EC02F81388537FD20C06E815D
:100850002F3131051CF06623F9F023C08EE190E0C2
:10086000821B930B29853A854B855C8504C0569580
:100870004795379527958A95D2F76623B1F050951D
:100880004095309521953F4F4F4F5F4F0EC020E070
:1008900030E040E050E009C02FEF3FEF4FEF5FE75F
:1008A00004C020E030E040E050E8B901CA012C96D5
:1008B000E2E00C943613EF92FF920F931F937B01AB
:1008C0008C0180E0E81680E0F80681E0080780E00F
:1008D000180788F48FEFE816F1040105110531F0CF
:1008E00028F088E090E0A0E0B0E017C080E090E061
:1008F000A0E0B0E012C080E0E81680E0F80680E0FA
:10090000080781E0180728F088E190E0A0E0B0E057
:1009100004C080E190E0A0E0B0E020E230E040E000
:1009200050E0281B390B4A0B5B0B04C0169507954A
:10093000F794E7948A95D2F7F701EB57FF4F808140
:10094000281B310941095109C9011F910F91FF90DD
:10095000EF900895DF92EF92FF920F931F93FC01A7
:10096000E480F58006811781D1808081823048F44F
:1009700080E090E0A0E1B0E0E82AF92A0A2B1B2BE6
:10098000A5C0843009F49FC0823021F4EE24FF24F6
:10099000870105C0E114F1040105110519F4E0E037
:1009A000F0E096C0628173819FEF623879070CF0A6
:1009B0005BC022E83FEF261B370B2A3131052CF0B4
:1009C00020E030E040E050E02AC0B801A701022E4C
:1009D00004C076956795579547950A94D2F781E0BC
:1009E00090E0A0E0B0E004C0880F991FAA1FBB1FD1
:1009F0002A95D2F70197A109B1098E219F21A02341
:100A0000B1230097A105B10521F081E090E0A0E0BD
:100A1000B0E09A01AB01282B392B4A2B5B2BDA0172
:100A2000C9018F779070A070B07080349105A105D6
:100A3000B10539F427FF09C0205C3F4F4F4F5F4F8E
:100A400004C0215C3F4F4F4F5F4FE0E0F0E02030AB
:100A5000A0E03A07A0E04A07A0E45A0710F0E1E05E
:100A6000F0E079018A0127C06038710564F5FB0167
:100A7000E158FF4FD801C7018F779070A070B07018
:100A800080349105A105B10539F4E7FE0DC080E47D
:100A900090E0A0E0B0E004C08FE390E0A0E0B0E020
:100AA000E80EF91E0A1F1B1F17FF05C016950795B4
:100AB000F794E794319687E016950795F794E794B5
:100AC0008A95D1F705C0EE24FF248701EFEFF0E00F
:100AD0006E2F679566276795902F9F77D794DD24B3
:100AE000D7948E2F8695492F462B582F5D29B70115
:100AF000CA011F910F91FF90EF90DF900895FC01C4
:100B0000DB01408151812281622F6F7770E0221FCB
:100B10002227221F9381892F880F822B282F30E0D4
:100B2000991F9927991F11969C93119721153105AB
:100B3000A9F5411551056105710511F482E037C031
:100B400082E89FEF13969C938E9312979A01AB01C4
:100B500067E0220F331F441F551F6A95D1F783E0CA
:100B60008C930DC0220F331F441F551F12968D9179
:100B70009C911397019713969C938E931297203014
:100B800080E0380780E0480780E4580758F314965F
:100B90002D933D934D935C93179708952F3F310507
:100BA00079F4411551056105710519F484E08C93C0
:100BB000089564FF03C081E08C9312C01C9210C0A2
:100BC0002F57304013963C932E93129783E08C93CB
:100BD00087E0440F551F661F771F8A95D1F7706411
:100BE00014964D935D936D937C93179708951F937F
:100BF000DC01FB019C91923008F447C08081823077
:100C000008F443C0943051F411961C91843099F546
:100C10008181682F70E0611B71093FC0843021F031
:100C2000923031F48230B9F18181882389F12DC06D
:100C300011961C9111978230F1F081811817D9F427
:100C400012962D913C91139782819381821793077D
:100C500094F028173907BCF014968D919D910D9052
:100C6000BC91A02D248135814681578128173907F1
:100C70004A075B0718F4112341F00AC08217930753
:100C8000A407B50740F4112319F061E070E005C036
:100C90006FEF7FEF02C060E070E0CB011F9108951D
:100CA000DF93CF93CDB7DEB7E7E2F0E080E4808357
:100CB000E6E2F0E087E88083A6E2B0E0E6E2F0E07A
:100CC000808182608C93CF91DF910895DF93CF93E1
:100CD000CDB7DEB7A6E2B0E0E6E2F0E08081826068
:100CE0008C93CF91DF910895DF93CF93CDB7DEB78B
:100CF000A6E2B0E0E6E2F0E080818D7F8C93CF91B8
:100D0000DF910895DF93CF930F92CDB7DEB789833C
:100D1000898187708983A7E2B0E0E7E2F0E0808113
:100D2000982F987F8981892B8C93A6E2B0E0E6E228
:100D3000F0E0808180648C93E6E2F0E08081882F8F
:100D400090E0807190700097B9F3E4E2F0E0808168
:100D500091810F90CF91DF910895DF93CF930F9200
:100D6000CDB7DEB78983898187708983A7E2B0E038
:100D7000E7E2F0E08081982F987F8981892B8C931E
:100D8000A6E2B0E0E6E2F0E0808180648C930F9010
:100D9000CF91DF910895DF93CF93CDB7DEB7E4E233
:100DA000F0E080819181CF91DF910895DF93CF931F
:100DB00000D0CDB7DEB79A83898389819A819093D9
:100DC0009701809396010F900F90CF91DF91089536
:100DD0001F920F920FB60F9211242F933F934F93B0
:100DE0005F936F937F938F939F93AF93BF93EF9393
:100DF000FF93DF93CF93CDB7DEB7E0919601F091EB
:100E000097010995CF91DF91FF91EF91BF91AF913C
:100E10009F918F917F916F915F914F913F912F9112
:100E20000F900FBE0F901F901895DF93CF93CDB703
:100E3000DEB76D970FB6F894DEBF0FBECDBF8D8FB6
:100E40008D8D813009F07FC00E942E0882E061E024
:100E500041E00E94BD0882E060E040E00E94BD08E1
:100E600080E090E0AAE7B4E4898F9A8FAB8FBC8FC3
:100E7000698D7A8D8B8D9C8D20E030E04AEF54E4B3
:100E80000E941F02DC01CB018D8B9E8BAF8BB88F34
:100E90006D897E898F89988D20E030E040E85FE39E
:100EA0000E94790388232CF481E090E09C8B8B8B4B
:100EB0003FC06D897E898F89988D20E03FEF4FE795
:100EC00057E40E94190318164CF5698D7A8D8B8DA5
:100ED0009C8D20E030E040E251E40E941F02DC01E2
:100EE000CB01BC01CD010E944900DC01CB019C8BF0
:100EF0008B8B0FC088EC90E09A8B898B89899A89BB
:100F00000197F1F79A8B898B8B899C8901979C8B30
:100F10008B8B8B899C89009769F797C06D897E8937
:100F20008F89988D0E944900DC01CB019C8B8B8BB3
:100F30008B899C89988B8F878F8598890197F1F78A
:100F4000988B8F8782C08D8D823009F07EC00E9481
:100F50002E0882E060E041E00E94BD0882E061E08E
:100F600040E00E94BD0880E090E0AAE7B4E48B87EF
:100F70009C87AD87BE876B857C858D859E8520E0AF
:100F800030E04AEF54E40E941F02DC01CB018F8362
:100F90009887A987BA876F81788589859A8520E0A7
:100FA00030E040E85FE30E94790388232CF481E07D
:100FB00090E09E838D833FC06F81788589859A8577
:100FC00020E03FEF4FE757E40E94190318164CF555
:100FD0006B857C858D859E8520E030E040E251E484
:100FE0000E941F02DC01CB01BC01CD010E9449001F
:100FF000DC01CB019E838D830FC088EC90E09C8345
:101000008B838B819C810197F1F79C838B838D81EE
:101010009E8101979E838D838D819E81009769F7C4
:1010200014C06F81788589859A850E944900DC010A
:10103000CB019E838D838D819E819A838983898153
:101040009A810197F1F79A8389836D960FB6F89488
:10105000DEBF0FBECDBFCF91DF910895DF93CF9359
:10106000CDB7DEB72E970FB6F894DEBF0FBECDBF5B
:1010700082E060E040E00E94BD0882E061E040E084
:101080000E94BD0880E090E0A8E4B3E48B879C87D1
:10109000AD87BE876B857C858D859E8520E030E0A1
:1010A0004AEF54E40E941F02DC01CB018F83988732
:1010B000A987BA876F81788589859A8520E030E095
:1010C00040E85FE30E94790388232CF481E090E0FC
:1010D0009E838D833FC06F81788589859A8520E0C6
:1010E0003FEF4FE757E40E94190318164CF56B8544
:1010F0007C858D859E8520E030E040E251E40E94B1
:101100001F02DC01CB01BC01CD010E944900DC01C2
:10111000CB019E838D830FC088EC90E09C838B83F2
:101120008B819C810197F1F79C838B838D819E81BC
:1011300001979E838D838D819E81009769F714C0EE
:101140006F81788589859A850E944900DC01CB01F1
:101150009E838D838D819E819A83898389819A81E3
:101160000197F1F79A8389832E960FB6F894DEBF24
:101170000FBECDBFCF91DF910895DF93CF93CDB751
:10118000DEB727970FB6F894DEBF0FBECDBF8983B9
:101190006A834B838981843008F0EEC08A8188306D
:1011A00008F0EAC08B81882309F074C08981282F58
:1011B00030E03F832E838E819F818130910559F1EC
:1011C0002E813F81223031052CF48E819F81009742
:1011D00069F0D2C02E813F812230310589F18E81A4
:1011E0009F818330910509F440C0C6C0ABE3B0E0F5
:1011F000EBE3F0E08081482F8A81282F30E081E006
:1012000090E0022E02C0880F991F0A94E2F78095A1
:1012100084238C93B1C0A8E3B0E0E8E3F0E08081E0
:10122000482F8A81282F30E081E090E0022E02C012
:10123000880F991F0A94E2F7809584238C939CC0B1
:10124000A5E3B0E0E5E3F0E08081482F8A81282F14
:1012500030E081E090E0022E02C0880F991F0A94CE
:10126000E2F7809584238C9387C0A2E3B0E0E2E3A9
:10127000F0E08081482F8A81282F30E081E090E0E3
:10128000022E02C0880F991F0A94E2F780958423EA
:101290008C9372C08B81813009F06EC08981282FB8
:1012A00030E03D832C838C819D818130910549F113
:1012B0002C813D81223031052CF48C819D81009759
:1012C00061F05AC02C813D812230310571F18C8151
:1012D0009D8183309105E9F14FC0ABE3B0E0EBE3D2
:1012E000F0E08081482F8A81282F30E081E090E073
:1012F000022E02C0880F991F0A94E2F7842B8C9368
:101300003BC0A8E3B0E0E8E3F0E08081482F8A81A9
:10131000282F30E081E090E0022E02C0880F991F54
:101320000A94E2F7842B8C9327C0A5E3B0E0E5E3B1
:10133000F0E08081482F8A81282F30E081E090E022
:10134000022E02C0880F991F0A94E2F7842B8C9317
:1013500013C0A2E3B0E0E2E3F0E08081482F8A818D
:10136000282F30E081E090E0022E02C0880F991F04
:101370000A94E2F7842B8C9327960FB6F894DEBF7D
:101380000FBECDBFCF91DF910895DF93CF93CDB73F
:10139000DEB727970FB6F894DEBF0FBECDBF8983A7
:1013A0006A834B838981843008F0EEC08A8188305B
:1013B00008F0EAC08B81882309F074C08981282F46
:1013C00030E03F832E838E819F818130910559F1DA
:1013D0002E813F81223031052CF48E819F81009730
:1013E00069F0D2C02E813F812230310589F18E8192
:1013F0009F818330910509F440C0C6C0AAE3B0E0E4
:10140000EAE3F0E08081482F8A81282F30E081E0F4
:1014100090E0022E02C0880F991F0A94E2F780958F
:1014200084238C93B1C0A7E3B0E0E7E3F0E08081D0
:10143000482F8A81282F30E081E090E0022E02C000
:10144000880F991F0A94E2F7809584238C939CC09F
:10145000A4E3B0E0E4E3F0E08081482F8A81282F04
:1014600030E081E090E0022E02C0880F991F0A94BC
:10147000E2F7809584238C9387C0A1E3B0E0E1E399
:10148000F0E08081482F8A81282F30E081E090E0D1
:10149000022E02C0880F991F0A94E2F780958423D8
:1014A0008C9372C08B81813009F06EC08981282FA6
:1014B00030E03D832C838C819D818130910549F101
:1014C0002C813D81223031052CF48C819D81009747
:1014D00061F05AC02C813D812230310571F18C813F
:1014E0009D8183309105E9F14FC0AAE3B0E0EAE3C2
:1014F000F0E08081482F8A81282F30E081E090E061
:10150000022E02C0880F991F0A94E2F7842B8C9355
:101510003BC0A7E3B0E0E7E3F0E08081482F8A8199
:10152000282F30E081E090E0022E02C0880F991F42
:101530000A94E2F7842B8C9327C0A4E3B0E0E4E3A1
:10154000F0E08081482F8A81282F30E081E090E010
:10155000022E02C0880F991F0A94E2F7842B8C9305
:1015600013C0A1E3B0E0E1E3F0E08081482F8A817D
:10157000282F30E081E090E0022E02C0880F991FF2
:101580000A94E2F7842B8C9327960FB6F894DEBF6B
:101590000FBECDBFCF91DF910895DF93CF9300D0E1
:1015A00000D0CDB7DEB789836A838981843090F516
:1015B0008981282F30E03C832B838B819C81813073
:1015C0009105D1F02B813C81223031052CF48B81A7
:1015D0009C81009761F01EC02B813C812230310537
:1015E00081F08B819C818330910581F013C0EBE306
:1015F000F0E08A8180830EC0E8E3F0E08A81808396
:1016000009C0E5E3F0E08A81808304C0E2E3F0E012
:101610008A8180830F900F900F900F90CF91DF9170
:101620000895DF93CF9300D000D0CDB7DEB7898384
:101630006A838981843090F58981282F30E03C834A
:101640002B838B819C8181309105D1F02B813C8152
:10165000223031052CF48B819C81009761F01EC0F3
:101660002B813C812230310581F08B819C8183303C
:10167000910581F013C0EAE3F0E08A8180830EC017
:10168000E7E3F0E08A81808309C0E4E3F0E08A8147
:10169000808304C0E1E3F0E08A8180830F900F90A3
:1016A0000F900F90CF91DF910895DF93CF9300D0EB
:1016B00000D00F92CDB7DEB78A836B838FEF89831B
:1016C0008A81843008F06BC08B81883008F067C055
:1016D0008A81282F30E03D832C834C815D8141300D
:1016E000510541F18C819D818230910534F42C812A
:1016F0003D812115310561F052C04C815D81423040
:10170000510551F18C819D8183309105B9F147C01C
:10171000E9E3F0E08081282F30E08B81882F90E092
:10172000A90102C0559547958A95E2F7CA018170D3
:10173000898335C0E6E3F0E08081282F30E08B819B
:10174000882F90E0A90102C0559547958A95E2F748
:10175000CA018170898323C0E3E3F0E08081282FF0
:1017600030E08B81882F90E0A90102C05595479504
:101770008A95E2F7CA018170898311C0E0E3F0E045
:101780008081282F30E08B81882F90E0A90102C052
:10179000559547958A95E2F7CA01817089838981B9
:1017A0000F900F900F900F900F90CF91DF910895B1
:1017B000DF93CF93CDB7DEB762970FB6F894DEBF55
:1017C0000FBECDBF8FEF898B188AAAC080E06889D1
:1017D00040E00E94BD081F8697C081E06F850E948F
:1017E000550B882309F08DC08F85482F50E08889DC
:1017F000282F30E0CA01880F991F880F991F820F88
:10180000931FFC01EB57FE4F8081898B81E06F8530
:101810000E94550B8823D1F380E090E0A0E2B1E470
:101820008B879C87AD87BE876B857C858D859E85E4
:1018300020E030E04AEF54E40E941F02DC01CB01BB
:101840008F839887A987BA876F81788589859A85DC
:1018500020E030E040E85FE30E94790388232CF425
:1018600081E090E09E838D833FC06F81788589857C
:101870009A8520E03FEF4FE757E40E9419031816BE
:101880004CF56B857C858D859E8520E030E040E2BF
:1018900051E40E941F02DC01CB01BC01CD010E947A
:1018A0004900DC01CB019E838D830FC088EC90E062
:1018B0009C838B838B819C810197F1F79C838B8325
:1018C0008D819E8101979E838D838D819E8100975E
:1018D00069F714C06F81788589859A850E944900CF
:1018E000DC01CB019E838D838D819E819A838983C8
:1018F00089819A810197F1F79A83898389898A8BF3
:1019000015C08F858F5F8F878F85843008F465CFF2
:1019100080E0688941E00E94BD0888898F5F888BDC
:101920008889843008F452CF89898A8B8A896296A3
:101930000FB6F894DEBF0FBECDBFCF91DF910895F3
:10194000DF93CF93CDB7DEB7E8970FB6F894DEBF3D
:101950000FBECDBF80E090E0A8ECB2E48DAB9EABB3
:10196000AFABB8AF6DA97EA98FA998AD20E030E0EC
:101970004AEF54E40E941F02DC01CB0189AB9AAB11
:10198000ABABBCAB69A97AA98BA99CA920E030E0DC
:1019900040E85FE30E94790388232CF481E090E023
:1019A00098AB8FA73FC069A97AA98BA99CA920E011
:1019B0003FEF4FE757E40E94190318164CF56DA945
:1019C0007EA98FA998AD20E030E040E251E40E946A
:1019D0001F02DC01CB01BC01CD010E944900DC01EA
:1019E000CB0198AB8FA70FC088EC90E09EA78DA786
:1019F0008DA59EA50197F1F79EA78DA78FA598A904
:101A0000019798AB8FA78FA598A9009769F714C085
:101A100069A97AA98BA99CA90E944900DC01CB0184
:101A200098AB8FA78FA598A99CA78BA78BA59CA5E2
:101A30000197F1F79CA78BA788E30E94870E80E0AF
:101A400090E0A0E0B0E48FA398A7A9A7BAA76FA1E0
:101A500078A589A59AA520E030E04AEF54E40E94D9
:101A60001F02DC01CB018BA39CA3ADA3BEA36BA182
:101A70007CA18DA19EA120E030E040E85FE30E94C0
:101A8000790388232CF481E090E09AA389A33FC0D6
:101A90006BA17CA18DA19EA120E03FEF4FE757E411
:101AA0000E94190318164CF56FA178A589A59AA56F
:101AB00020E030E040E251E40E941F02DC01CB0153
:101AC000BC01CD010E944900DC01CB019AA389A38E
:101AD0000FC088EC90E098A38F8F8F8D98A101970D
:101AE000F1F798A38F8F89A19AA101979AA389A34F
:101AF00089A19AA1009769F714C06BA17CA18DA15F
:101B00009EA10E944900DC01CB019AA389A389A16F
:101B10009AA19E8F8D8F8D8D9E8D0197F1F79E8F4F
:101B20008D8F8CE00E94870E80E090E0A0E0B0E412
:101B3000898F9A8FAB8FBC8F698D7A8D8B8D9C8DA1
:101B400020E030E04AEF54E40E941F02DC01CB01A8
:101B50008D8B9E8BAF8BB88F6D897E898F89988D89
:101B600020E030E040E85FE30E94790388232CF412
:101B700081E090E09C8B8B8B3FC06D897E898F8943
:101B8000988D20E03FEF4FE757E40E9419031816A5
:101B90004CF5698D7A8D8B8D9C8D20E030E040E294
:101BA00051E40E941F02DC01CB01BC01CD010E9467
:101BB0004900DC01CB019C8B8B8B0FC088EC90E043
:101BC0009A8B898B89899A890197F1F79A8B898BEE
:101BD0008B899C8901979C8B8B8B8B899C89009727
:101BE00069F714C06D897E898F89988D0E9449009C
:101BF000DC01CB019C8B8B8B8B899C89988B8F878D
:101C00008F8598890197F1F7988B8F8781E00E94E3
:101C1000870E80E090E0A0E0B0E48B879C87AD87E2
:101C2000BE876B857C858D859E8520E030E04AEF00
:101C300054E40E941F02DC01CB018F839887A9879F
:101C4000BA876F81788589859A8520E030E040E801
:101C50005FE30E94790388232CF481E090E09E8367
:101C60008D833FC06F81788589859A8520E03FEF1D
:101C70004FE757E40E94190318164CF56B857C85D5
:101C80008D859E8520E030E040E251E40E941F02F5
:101C9000DC01CB01BC01CD010E944900DC01CB017C
:101CA0009E838D830FC088EC90E09C838B838B8117
:101CB0009C810197F1F79C838B838D819E81019795
:101CC0009E838D838D819E81009769F714C06F81FB
:101CD000788589859A850E944900DC01CB019E8325
:101CE0008D838D819E819A83898389819A810197D1
:101CF000F1F79A83898386E00E94870EE8960FB6F3
:101D0000F894DEBF0FBECDBFCF91DF910895DF9372
:101D1000CF93CDB7DEB72F970FB6F894DEBF0FBEC7
:101D2000CDBF8F8782E065E040E00E94BD0883E080
:101D30006F850E94CD0A82E062E041E00E94BD080A
:101D400080E090E0A0E8BFE38B879C87AD87BE87EB
:101D50006B857C858D859E8520E030E04AEF54E4DC
:101D60000E941F02DC01CB018F839887A987BA8765
:101D70006F81788589859A8520E030E040E85FE3CF
:101D80000E94790388232CF481E090E09E838D8368
:101D90003FC06F81788589859A8520E03FEF4FE7C6
:101DA00057E40E94190318164CF56B857C858D85C8
:101DB0009E8520E030E040E251E40E941F02DC01F9
:101DC000CB01BC01CD010E944900DC01CB019E8307
:101DD0008D830FC088EC90E09C838B838B819C81EA
:101DE0000197F1F79C838B838D819E8101979E8360
:101DF0008D838D819E81009769F714C06F817885EE
:101E000089859A850E944900DC01CB019E838D83E0
:101E10008D819E819A83898389819A810197F1F7C7
:101E20009A83898382E062E040E00E94BD082F9699
:101E30000FB6F894DEBF0FBECDBFCF91DF910895EE
:101E4000DF93CF93CDB7DEB72F970FB6F894DEBFF1
:101E50000FBECDBF8F8782E065E041E00E94BD08E4
:101E600083E06F850E94CD0A82E062E041E00E943B
:101E7000BD0880E090E0A0E8BFE38B879C87AD873A
:101E8000BE876B857C858D859E8520E030E04AEF9E
:101E900054E40E941F02DC01CB018F839887A9873D
:101EA000BA876F81788589859A8520E030E040E89F
:101EB0005FE30E94790388232CF481E090E09E8305
:101EC0008D833FC06F81788589859A8520E03FEFBB
:101ED0004FE757E40E94190318164CF56B857C8573
:101EE0008D859E8520E030E040E251E40E941F0293
:101EF000DC01CB01BC01CD010E944900DC01CB011A
:101F00009E838D830FC088EC90E09C838B838B81B4
:101F10009C810197F1F79C838B838D819E81019732
:101F20009E838D838D819E81009769F714C06F8198
:101F3000788589859A850E944900DC01CB019E83C2
:101F40008D838D819E819A83898389819A8101976E
:101F5000F1F79A83898382E062E040E00E94BD0845
:101F60002F960FB6F894DEBF0FBECDBFCF91DF9195
:101F70000895DF93CF9300D0CDB7DEB789836A830E
:101F80008A81882329F4898180680E94870E04C091
:101F90008981806C0E94870E0F900F90CF91DF9106
:101FA0000895DF93CF9300D0CDB7DEB79A838983AE
:101FB0000AC0E981FA8180810E94200F89819A817B
:101FC00001969A838983E981FA818081882389F740
:101FD0000F900F90CF91DF910895DF93CF93CDB7FE
:101FE000DEB768970FB6F894DEBF0FBECDBF988FEF
:101FF0008F8B84E1FE013396DF01982F1D929A9515
:10200000E9F71A8219828F89988D009721F480E36D
:102010000E94200F4BC01A82198226C0E981FA81E2
:102020008F89988D2AE030E0B9010E94E312AC015B
:10203000405D5F4F9F01220F331FCE010196820F3B
:10204000931FFC013296518340838F89988D2AE03B
:1020500030E0B9010E94E312CB01988F8F8B898108
:102060009A8101969A8389838F89988D0097B1F61A
:1020700089819A8101979A83898314C089819A8181
:102080009C01220F331FCE010196820F931FFC018A
:102090003296808191810E94200F89819A810197D7
:1020A0009A83898389819A81992344F768960FB628
:1020B000F894DEBF0FBECDBFCF91DF910895DF93BF
:1020C000CF93CDB7DEB72F970FB6F894DEBF0FBE14
:1020D000CDBF6C877D878E879F876C857D858E853C
:1020E0009F850E944900DC01CB018C839D83AE83D8
:1020F000BF838C819D810E94ED0F6C817D818E81DB
:102100009F810E94A9039B01AC016C857D858E8512
:102110009F850E94C101DC01CB0188879987AA872E
:10212000BB876C857D858E859F8520E030E040E013
:1021300050E00E94790388234CF488859985AA850C
:10214000BB85B05888879987AA87BB876C817D81BA
:102150008E819F810E94A9039B01AC016C857D85C6
:102160008E859F850E94C101DC01CB01BC01CD01A0
:1021700020E030E040E050E00E94190318160CF017
:1021800068C08EE20E94200F1B8281E089835DC0BF
:10219000688579858A859B8520E030E040E251E4BE
:1021A0000E941F02DC01CB0188879987AA87BB8721
:1021B000688579858A859B850E944900DC01CB0171
:1021C0008A838A81882351F48B81882339F089811D
:1021D000843020F480E30E94200F3BC08B81882351
:1021E00071F08A81882359F08A81843020F081E35C
:1021F0000E94200F2EC080E30E94200F2AC08A81F7
:10220000882319F481E08B8304C08A81805D0E9459
:10221000200F8A81882F90E0AA2797FDA095BA2FDA
:10222000BC01CD010E94A9039B01AC0168857985A1
:102230008A859B850E94C101DC01CB018887998733
:10224000AA87BB8789818F5F89838981853008F45C
:102250009FCF2F960FB6F894DEBF0FBECDBFCF91A4
:10226000DF910895DF93CF93CDB7DEB7A1970FB677
:10227000F894DEBF0FBECDBF19A280E067E041E059
:102280000E94C50980E067E040E00E94BD0881E04F
:1022900066E040E00E94C50981E066E041E00E94FE
:1022A000BD0881E067E041E00E94C50983E06FEF6F
:1022B0000E94110B82E065E041E00E94C50982E0C6
:1022C00062E041E00E94C50980E060E040E00E94D9
:1022D000C5090E94A00C0E94500618A21F8E81E022
:1022E00066E00E94550B89A389A1813009F0A6C040
:1022F00081E067E040E00E94BD0880E00E94820625
:102300009E8F8D8F8D8D9E8DCC01A0E0B0E028E852
:1023100033E140E050E0BC01CD010E94C412DC0179
:10232000CB01072E7AE0B695A795979587957A9574
:10233000D1F7702D98A38F8F81E00E94870E80E6E1
:1023400090E00E94D10F80E061E00E94B90F8F8D74
:1023500098A10E94ED0F80E090E0AAE7B4E4898F95
:102360009A8FAB8FBC8F698D7A8D8B8D9C8D20E081
:1023700030E04AEF54E40E941F02DC01CB018D8B58
:102380009E8BAF8BB88F6D897E898F89988D20E069
:1023900030E040E85FE30E94790388232CF481E079
:1023A00090E09C8B8B8B3FC06D897E898F89988D47
:1023B00020E03FEF4FE757E40E94190318164CF551
:1023C000698D7A8D8B8D9C8D20E030E040E251E468
:1023D0000E941F02DC01CB01BC01CD010E9449001B
:1023E000DC01CB019C8B8B8B0FC088EC90E09A8B2F
:1023F000898B89899A890197F1F79A8B898B8B89C7
:102400009C8901979C8B8B8B8B899C89009769F7A2
:1024100066CF6D897E898F89988D0E944900DC0185
:10242000CB019C8B8B8B8B899C89988B8F878F851D
:1024300098890197F1F7988B8F8751CF81E067E0FA
:1024400041E00E94BD0880E00E9482069E8F8D8F31
:102450008D8D9E8DCC01A0E0B0E028E833E140E016
:1024600050E0BC01CD010E94C412DC01CB01072E5B
:1024700079E0B695A795979587957A95D1F7702DC0
:1024800098A38F8F81E00E94870E8EE690E00E94D5
:10249000D10F80E061E00E94B90F8F8D98A10E945A
:1024A000ED0F80E090E0AAE7B4E48B879C87AD87CE
:1024B000BE876B857C858D859E8520E030E04AEF68
:1024C00054E40E941F02DC01CB018F839887A98707
:1024D000BA876F81788589859A8520E030E040E869
:1024E0005FE30E94790388232CF481E090E09E83CF
:1024F0008D833FC06F81788589859A8520E03FEF85
:102500004FE757E40E94190318164CF56B857C853C
:102510008D859E8520E030E040E251E40E941F025C
:10252000DC01CB01BC01CD010E944900DC01CB01E3
:102530009E838D830FC088EC90E09C838B838B817E
:102540009C810197F1F79C838B838D819E810197FC
:102550009E838D838D819E81009769F7C0CE6F81A8
:10256000788589859A850E944900DC01CB019E838C
:102570008D838D819E819A83898389819A81019738
:10258000F1F79A838983ABCE629FD001739FF001EC
:10259000829FE00DF11D649FE00DF11D929FF00DF3
:1025A000839FF00D749FF00D659FF00D9927729F2A
:1025B000B00DE11DF91F639FB00DE11DF91FBD01B5
:1025C000CF011124089597FB092E07260AD077FD25
:1025D00004D00CD006D000201AF4709561957F4F7E
:1025E0000895F6F7909581959F4F0895AA1BBB1B00
:1025F00051E107C0AA1FBB1FA617B70710F0A61B03
:10260000B70B881F991F5A95A9F780959095BC0123
:10261000CD0108952F923F924F925F926F927F92D9
:102620008F929F92AF92BF92CF92DF92EF92FF92E2
:102630000F931F93CF93DF93CDB7DEB7CA1BDB0B8E
:102640000FB6F894DEBF0FBECDBF09942A88398833
:1026500048885F846E847D848C849B84AA84B9843A
:10266000C884DF80EE80FD800C811B81AA81B98146
:10267000CE0FD11D0FB6F894DEBF0FBECDBFED015A
:062680000895F894FFCF5D
:10268600203520566F6C74204D6F64653A002031FA
:102696003020566F6C74204D6F64653A0000000060
:1026A6000000000000000102020303030304040407
:1026B60004040404040505050505050505050505C9
:1026C60005050505050606060606060606060606A9
:1026D6000606060606060606060606060606060694
:1026E6000606060606070707070707070707070779
:1026F6000707070707070707070707070707070764
:102706000707070707070707070707070707070753
:102716000707070707070707070707070707070743
:102726000707070707080808080808080808080828
:102736000808080808080808080808080808080813
:102746000808080808080808080808080808080803
:1027560008080808080808080808080808080808F3
:1027660008080808080808080808080808080808E3
:1027760008080808080808080808080808080808D3
:1027860008080808080808080808080808080808C3
:1027960008080808080808080808080808080808B3
:1027A60008080808083132332B3435362D373839C6
:0627B6002A2F30423D0015
:00000001FF
